{
  "_format": "hh-sol-artifact-1",
  "contractName": "MintifyToken",
  "sourceName": "contracts/MintifyToken.sol",
  "abi": [
    {
      "inputs": [
        {
          "internalType": "contract MintifyNft",
          "name": "mintifyNftAddress",
          "type": "address"
        }
      ],
      "stateMutability": "nonpayable",
      "type": "constructor"
    },
    {
      "anonymous": false,
      "inputs": [
        {
          "indexed": true,
          "internalType": "address",
          "name": "owner",
          "type": "address"
        },
        {
          "indexed": true,
          "internalType": "address",
          "name": "spender",
          "type": "address"
        },
        {
          "indexed": false,
          "internalType": "uint256",
          "name": "value",
          "type": "uint256"
        }
      ],
      "name": "Approval",
      "type": "event"
    },
    {
      "anonymous": false,
      "inputs": [
        {
          "indexed": true,
          "internalType": "address",
          "name": "previousOwner",
          "type": "address"
        },
        {
          "indexed": true,
          "internalType": "address",
          "name": "newOwner",
          "type": "address"
        }
      ],
      "name": "OwnershipTransferred",
      "type": "event"
    },
    {
      "anonymous": false,
      "inputs": [
        {
          "indexed": true,
          "internalType": "address",
          "name": "from",
          "type": "address"
        },
        {
          "indexed": true,
          "internalType": "address",
          "name": "to",
          "type": "address"
        },
        {
          "indexed": false,
          "internalType": "uint256",
          "name": "value",
          "type": "uint256"
        }
      ],
      "name": "Transfer",
      "type": "event"
    },
    {
      "inputs": [
        {
          "internalType": "address",
          "name": "owner",
          "type": "address"
        },
        {
          "internalType": "address",
          "name": "spender",
          "type": "address"
        }
      ],
      "name": "allowance",
      "outputs": [
        {
          "internalType": "uint256",
          "name": "",
          "type": "uint256"
        }
      ],
      "stateMutability": "view",
      "type": "function"
    },
    {
      "inputs": [
        {
          "internalType": "address",
          "name": "spender",
          "type": "address"
        },
        {
          "internalType": "uint256",
          "name": "amount",
          "type": "uint256"
        }
      ],
      "name": "approve",
      "outputs": [
        {
          "internalType": "bool",
          "name": "",
          "type": "bool"
        }
      ],
      "stateMutability": "nonpayable",
      "type": "function"
    },
    {
      "inputs": [
        {
          "internalType": "address",
          "name": "account",
          "type": "address"
        }
      ],
      "name": "balanceOf",
      "outputs": [
        {
          "internalType": "uint256",
          "name": "",
          "type": "uint256"
        }
      ],
      "stateMutability": "view",
      "type": "function"
    },
    {
      "inputs": [],
      "name": "claimToken",
      "outputs": [],
      "stateMutability": "nonpayable",
      "type": "function"
    },
    {
      "inputs": [],
      "name": "decimals",
      "outputs": [
        {
          "internalType": "uint8",
          "name": "",
          "type": "uint8"
        }
      ],
      "stateMutability": "view",
      "type": "function"
    },
    {
      "inputs": [
        {
          "internalType": "address",
          "name": "spender",
          "type": "address"
        },
        {
          "internalType": "uint256",
          "name": "subtractedValue",
          "type": "uint256"
        }
      ],
      "name": "decreaseAllowance",
      "outputs": [
        {
          "internalType": "bool",
          "name": "",
          "type": "bool"
        }
      ],
      "stateMutability": "nonpayable",
      "type": "function"
    },
    {
      "inputs": [
        {
          "internalType": "address",
          "name": "spender",
          "type": "address"
        },
        {
          "internalType": "uint256",
          "name": "addedValue",
          "type": "uint256"
        }
      ],
      "name": "increaseAllowance",
      "outputs": [
        {
          "internalType": "bool",
          "name": "",
          "type": "bool"
        }
      ],
      "stateMutability": "nonpayable",
      "type": "function"
    },
    {
      "inputs": [],
      "name": "maxTotalSupply",
      "outputs": [
        {
          "internalType": "uint256",
          "name": "",
          "type": "uint256"
        }
      ],
      "stateMutability": "view",
      "type": "function"
    },
    {
      "inputs": [],
      "name": "name",
      "outputs": [
        {
          "internalType": "string",
          "name": "",
          "type": "string"
        }
      ],
      "stateMutability": "view",
      "type": "function"
    },
    {
      "inputs": [],
      "name": "owner",
      "outputs": [
        {
          "internalType": "address",
          "name": "",
          "type": "address"
        }
      ],
      "stateMutability": "view",
      "type": "function"
    },
    {
      "inputs": [],
      "name": "renounceOwnership",
      "outputs": [],
      "stateMutability": "nonpayable",
      "type": "function"
    },
    {
      "inputs": [],
      "name": "symbol",
      "outputs": [
        {
          "internalType": "string",
          "name": "",
          "type": "string"
        }
      ],
      "stateMutability": "view",
      "type": "function"
    },
    {
      "inputs": [
        {
          "internalType": "uint256",
          "name": "",
          "type": "uint256"
        }
      ],
      "name": "tokenIdsClaimed",
      "outputs": [
        {
          "internalType": "bool",
          "name": "",
          "type": "bool"
        }
      ],
      "stateMutability": "view",
      "type": "function"
    },
    {
      "inputs": [],
      "name": "tokensPerNFT",
      "outputs": [
        {
          "internalType": "uint256",
          "name": "",
          "type": "uint256"
        }
      ],
      "stateMutability": "view",
      "type": "function"
    },
    {
      "inputs": [],
      "name": "totalSupply",
      "outputs": [
        {
          "internalType": "uint256",
          "name": "",
          "type": "uint256"
        }
      ],
      "stateMutability": "view",
      "type": "function"
    },
    {
      "inputs": [
        {
          "internalType": "address",
          "name": "to",
          "type": "address"
        },
        {
          "internalType": "uint256",
          "name": "amount",
          "type": "uint256"
        }
      ],
      "name": "transfer",
      "outputs": [
        {
          "internalType": "bool",
          "name": "",
          "type": "bool"
        }
      ],
      "stateMutability": "nonpayable",
      "type": "function"
    },
    {
      "inputs": [
        {
          "internalType": "address",
          "name": "from",
          "type": "address"
        },
        {
          "internalType": "address",
          "name": "to",
          "type": "address"
        },
        {
          "internalType": "uint256",
          "name": "amount",
          "type": "uint256"
        }
      ],
      "name": "transferFrom",
      "outputs": [
        {
          "internalType": "bool",
          "name": "",
          "type": "bool"
        }
      ],
      "stateMutability": "nonpayable",
      "type": "function"
    },
    {
      "inputs": [
        {
          "internalType": "address",
          "name": "newOwner",
          "type": "address"
        }
      ],
      "name": "transferOwnership",
      "outputs": [],
      "stateMutability": "nonpayable",
      "type": "function"
    }
  ],
  "bytecode": "0x60806040523480156200001157600080fd5b506040516200215b3803806200215b83398181016040528101906200003791906200033b565b6040518060400160405280600c81526020017f4d696e74696679546f6b656e00000000000000000000000000000000000000008152506040518060400160405280600281526020017f4d540000000000000000000000000000000000000000000000000000000000008152508160039080519060200190620000bb9291906200020d565b508060049080519060200190620000d49291906200020d565b505050620000f7620000eb6200013f60201b60201c565b6200014760201b60201c565b80600660006101000a81548173ffffffffffffffffffffffffffffffffffffffff021916908373ffffffffffffffffffffffffffffffffffffffff16021790555050620003d2565b600033905090565b6000600560009054906101000a900473ffffffffffffffffffffffffffffffffffffffff16905081600560006101000a81548173ffffffffffffffffffffffffffffffffffffffff021916908373ffffffffffffffffffffffffffffffffffffffff1602179055508173ffffffffffffffffffffffffffffffffffffffff168173ffffffffffffffffffffffffffffffffffffffff167f8be0079c531659141344cd1fd0a4f28419497f9722a3daafe3b4186f6b6457e060405160405180910390a35050565b8280546200021b906200039c565b90600052602060002090601f0160209004810192826200023f57600085556200028b565b82601f106200025a57805160ff19168380011785556200028b565b828001600101855582156200028b579182015b828111156200028a5782518255916020019190600101906200026d565b5b5090506200029a91906200029e565b5090565b5b80821115620002b95760008160009055506001016200029f565b5090565b600080fd5b600073ffffffffffffffffffffffffffffffffffffffff82169050919050565b6000620002ef82620002c2565b9050919050565b60006200030382620002e2565b9050919050565b6200031581620002f6565b81146200032157600080fd5b50565b60008151905062000335816200030a565b92915050565b600060208284031215620003545762000353620002bd565b5b6000620003648482850162000324565b91505092915050565b7f4e487b7100000000000000000000000000000000000000000000000000000000600052602260045260246000fd5b60006002820490506001821680620003b557607f821691505b60208210811415620003cc57620003cb6200036d565b5b50919050565b611d7980620003e26000396000f3fe608060405234801561001057600080fd5b50600436106101165760003560e01c80635f3690af116100a257806395d89b411161007157806395d89b41146102d3578063a457c2d7146102f1578063a9059cbb14610321578063dd62ed3e14610351578063f2fde38b1461038157610116565b80635f3690af1461024b57806370a082311461027b578063715018a6146102ab5780638da5cb5b146102b557610116565b80632ab4d052116100e95780632ab4d052146101b7578063313ce567146101d557806339509351146101f35780634451d89f146102235780635afcc2f51461022d57610116565b806306fdde031461011b578063095ea7b31461013957806318160ddd1461016957806323b872dd14610187575b600080fd5b61012361039d565b6040516101309190611266565b60405180910390f35b610153600480360381019061014e9190611321565b61042f565b604051610160919061137c565b60405180910390f35b610171610452565b60405161017e91906113a6565b60405180910390f35b6101a1600480360381019061019c91906113c1565b61045c565b6040516101ae919061137c565b60405180910390f35b6101bf61048b565b6040516101cc91906113a6565b60405180910390f35b6101dd610499565b6040516101ea9190611430565b60405180910390f35b61020d60048036038101906102089190611321565b6104a2565b60405161021a919061137c565b60405180910390f35b61022b6104d9565b005b610235610768565b60405161024291906113a6565b60405180910390f35b6102656004803603810190610260919061144b565b610774565b604051610272919061137c565b60405180910390f35b61029560048036038101906102909190611478565b610794565b6040516102a291906113a6565b60405180910390f35b6102b36107dc565b005b6102bd6107f0565b6040516102ca91906114b4565b60405180910390f35b6102db61081a565b6040516102e89190611266565b60405180910390f35b61030b60048036038101906103069190611321565b6108ac565b604051610318919061137c565b60405180910390f35b61033b60048036038101906103369190611321565b610923565b604051610348919061137c565b60405180910390f35b61036b600480360381019061036691906114cf565b610946565b60405161037891906113a6565b60405180910390f35b61039b60048036038101906103969190611478565b6109cd565b005b6060600380546103ac9061153e565b80601f01602080910402602001604051908101604052809291908181526020018280546103d89061153e565b80156104255780601f106103fa57610100808354040283529160200191610425565b820191906000526020600020905b81548152906001019060200180831161040857829003601f168201915b5050505050905090565b60008061043a610a51565b9050610447818585610a59565b600191505092915050565b6000600254905090565b600080610467610a51565b9050610474858285610c24565b61047f858585610cb0565b60019150509392505050565b69010f0cf064dd5920000081565b60006012905090565b6000806104ad610a51565b90506104ce8185856104bf8589610946565b6104c9919061159f565b610a59565b600191505092915050565b60003390506000600660009054906101000a900473ffffffffffffffffffffffffffffffffffffffff1673ffffffffffffffffffffffffffffffffffffffff166370a08231836040518263ffffffff1660e01b815260040161053b91906114b4565b60206040518083038186803b15801561055357600080fd5b505afa158015610567573d6000803e3d6000fd5b505050506040513d601f19601f8201168201806040525081019061058b919061160a565b9050600081116105d0576040517f08c379a00000000000000000000000000000000000000000000000000000000081526004016105c790611683565b60405180910390fd5b6000805b82811015610702576000600660009054906101000a900473ffffffffffffffffffffffffffffffffffffffff1673ffffffffffffffffffffffffffffffffffffffff16632f745c5986846040518363ffffffff1660e01b815260040161063b9291906116a3565b60206040518083038186803b15801561065357600080fd5b505afa158015610667573d6000803e3d6000fd5b505050506040513d601f19601f8201168201806040525081019061068b919061160a565b90506007600082815260200190815260200160002060009054906101000a900460ff166106ee576001836106bf919061159f565b925060016007600083815260200190815260200160002060006101000a81548160ff0219169083151502179055505b5080806106fa906116cc565b9150506105d4565b5060008111610746576040517f08c379a000000000000000000000000000000000000000000000000000000000815260040161073d90611787565b60405180910390fd5b61076333674563918244f400008361075e91906117a7565b610f28565b505050565b674563918244f4000081565b60076020528060005260406000206000915054906101000a900460ff1681565b60008060008373ffffffffffffffffffffffffffffffffffffffff1673ffffffffffffffffffffffffffffffffffffffff168152602001908152602001600020549050919050565b6107e461107f565b6107ee60006110fd565b565b6000600560009054906101000a900473ffffffffffffffffffffffffffffffffffffffff16905090565b6060600480546108299061153e565b80601f01602080910402602001604051908101604052809291908181526020018280546108559061153e565b80156108a25780601f10610877576101008083540402835291602001916108a2565b820191906000526020600020905b81548152906001019060200180831161088557829003601f168201915b5050505050905090565b6000806108b7610a51565b905060006108c58286610946565b90508381101561090a576040517f08c379a000000000000000000000000000000000000000000000000000000000815260040161090190611873565b60405180910390fd5b6109178286868403610a59565b60019250505092915050565b60008061092e610a51565b905061093b818585610cb0565b600191505092915050565b6000600160008473ffffffffffffffffffffffffffffffffffffffff1673ffffffffffffffffffffffffffffffffffffffff16815260200190815260200160002060008373ffffffffffffffffffffffffffffffffffffffff1673ffffffffffffffffffffffffffffffffffffffff16815260200190815260200160002054905092915050565b6109d561107f565b600073ffffffffffffffffffffffffffffffffffffffff168173ffffffffffffffffffffffffffffffffffffffff161415610a45576040517f08c379a0000000000000000000000000000000000000000000000000000000008152600401610a3c90611905565b60405180910390fd5b610a4e816110fd565b50565b600033905090565b600073ffffffffffffffffffffffffffffffffffffffff168373ffffffffffffffffffffffffffffffffffffffff161415610ac9576040517f08c379a0000000000000000000000000000000000000000000000000000000008152600401610ac090611997565b60405180910390fd5b600073ffffffffffffffffffffffffffffffffffffffff168273ffffffffffffffffffffffffffffffffffffffff161415610b39576040517f08c379a0000000000000000000000000000000000000000000000000000000008152600401610b3090611a29565b60405180910390fd5b80600160008573ffffffffffffffffffffffffffffffffffffffff1673ffffffffffffffffffffffffffffffffffffffff16815260200190815260200160002060008473ffffffffffffffffffffffffffffffffffffffff1673ffffffffffffffffffffffffffffffffffffffff168152602001908152602001600020819055508173ffffffffffffffffffffffffffffffffffffffff168373ffffffffffffffffffffffffffffffffffffffff167f8c5be1e5ebec7d5bd14f71427d1e84f3dd0314c0f7b2291e5b200ac8c7c3b92583604051610c1791906113a6565b60405180910390a3505050565b6000610c308484610946565b90507fffffffffffffffffffffffffffffffffffffffffffffffffffffffffffffffff8114610caa5781811015610c9c576040517f08c379a0000000000000000000000000000000000000000000000000000000008152600401610c9390611a95565b60405180910390fd5b610ca98484848403610a59565b5b50505050565b600073ffffffffffffffffffffffffffffffffffffffff168373ffffffffffffffffffffffffffffffffffffffff161415610d20576040517f08c379a0000000000000000000000000000000000000000000000000000000008152600401610d1790611b27565b60405180910390fd5b600073ffffffffffffffffffffffffffffffffffffffff168273ffffffffffffffffffffffffffffffffffffffff161415610d90576040517f08c379a0000000000000000000000000000000000000000000000000000000008152600401610d8790611bb9565b60405180910390fd5b610d9b8383836111c3565b60008060008573ffffffffffffffffffffffffffffffffffffffff1673ffffffffffffffffffffffffffffffffffffffff16815260200190815260200160002054905081811015610e21576040517f08c379a0000000000000000000000000000000000000000000000000000000008152600401610e1890611c4b565b60405180910390fd5b8181036000808673ffffffffffffffffffffffffffffffffffffffff1673ffffffffffffffffffffffffffffffffffffffff16815260200190815260200160002081905550816000808573ffffffffffffffffffffffffffffffffffffffff1673ffffffffffffffffffffffffffffffffffffffff168152602001908152602001600020600082825401925050819055508273ffffffffffffffffffffffffffffffffffffffff168473ffffffffffffffffffffffffffffffffffffffff167fddf252ad1be2c89b69c2b068fc378daa952ba7f163c4a11628f55a4df523b3ef84604051610f0f91906113a6565b60405180910390a3610f228484846111c8565b50505050565b600073ffffffffffffffffffffffffffffffffffffffff168273ffffffffffffffffffffffffffffffffffffffff161415610f98576040517f08c379a0000000000000000000000000000000000000000000000000000000008152600401610f8f90611cb7565b60405180910390fd5b610fa4600083836111c3565b8060026000828254610fb6919061159f565b92505081905550806000808473ffffffffffffffffffffffffffffffffffffffff1673ffffffffffffffffffffffffffffffffffffffff168152602001908152602001600020600082825401925050819055508173ffffffffffffffffffffffffffffffffffffffff16600073ffffffffffffffffffffffffffffffffffffffff167fddf252ad1be2c89b69c2b068fc378daa952ba7f163c4a11628f55a4df523b3ef8360405161106791906113a6565b60405180910390a361107b600083836111c8565b5050565b611087610a51565b73ffffffffffffffffffffffffffffffffffffffff166110a56107f0565b73ffffffffffffffffffffffffffffffffffffffff16146110fb576040517f08c379a00000000000000000000000000000000000000000000000000000000081526004016110f290611d23565b60405180910390fd5b565b6000600560009054906101000a900473ffffffffffffffffffffffffffffffffffffffff16905081600560006101000a81548173ffffffffffffffffffffffffffffffffffffffff021916908373ffffffffffffffffffffffffffffffffffffffff1602179055508173ffffffffffffffffffffffffffffffffffffffff168173ffffffffffffffffffffffffffffffffffffffff167f8be0079c531659141344cd1fd0a4f28419497f9722a3daafe3b4186f6b6457e060405160405180910390a35050565b505050565b505050565b600081519050919050565b600082825260208201905092915050565b60005b838110156112075780820151818401526020810190506111ec565b83811115611216576000848401525b50505050565b6000601f19601f8301169050919050565b6000611238826111cd565b61124281856111d8565b93506112528185602086016111e9565b61125b8161121c565b840191505092915050565b60006020820190508181036000830152611280818461122d565b905092915050565b600080fd5b600073ffffffffffffffffffffffffffffffffffffffff82169050919050565b60006112b88261128d565b9050919050565b6112c8816112ad565b81146112d357600080fd5b50565b6000813590506112e5816112bf565b92915050565b6000819050919050565b6112fe816112eb565b811461130957600080fd5b50565b60008135905061131b816112f5565b92915050565b6000806040838503121561133857611337611288565b5b6000611346858286016112d6565b92505060206113578582860161130c565b9150509250929050565b60008115159050919050565b61137681611361565b82525050565b6000602082019050611391600083018461136d565b92915050565b6113a0816112eb565b82525050565b60006020820190506113bb6000830184611397565b92915050565b6000806000606084860312156113da576113d9611288565b5b60006113e8868287016112d6565b93505060206113f9868287016112d6565b925050604061140a8682870161130c565b9150509250925092565b600060ff82169050919050565b61142a81611414565b82525050565b60006020820190506114456000830184611421565b92915050565b60006020828403121561146157611460611288565b5b600061146f8482850161130c565b91505092915050565b60006020828403121561148e5761148d611288565b5b600061149c848285016112d6565b91505092915050565b6114ae816112ad565b82525050565b60006020820190506114c960008301846114a5565b92915050565b600080604083850312156114e6576114e5611288565b5b60006114f4858286016112d6565b9250506020611505858286016112d6565b9150509250929050565b7f4e487b7100000000000000000000000000000000000000000000000000000000600052602260045260246000fd5b6000600282049050600182168061155657607f821691505b6020821081141561156a5761156961150f565b5b50919050565b7f4e487b7100000000000000000000000000000000000000000000000000000000600052601160045260246000fd5b60006115aa826112eb565b91506115b5836112eb565b9250827fffffffffffffffffffffffffffffffffffffffffffffffffffffffffffffffff038211156115ea576115e9611570565b5b828201905092915050565b600081519050611604816112f5565b92915050565b6000602082840312156116205761161f611288565b5b600061162e848285016115f5565b91505092915050565b7f596f7520646f6e2774206f776e20616e79204d696e74696679204e4654000000600082015250565b600061166d601d836111d8565b915061167882611637565b602082019050919050565b6000602082019050818103600083015261169c81611660565b9050919050565b60006040820190506116b860008301856114a5565b6116c56020830184611397565b9392505050565b60006116d7826112eb565b91507fffffffffffffffffffffffffffffffffffffffffffffffffffffffffffffffff82141561170a57611709611570565b5b600182019050919050565b7f596f75206861766520616c726561647920636c61696d656420616c6c2074686560008201527f20746f6b656e7300000000000000000000000000000000000000000000000000602082015250565b60006117716027836111d8565b915061177c82611715565b604082019050919050565b600060208201905081810360008301526117a081611764565b9050919050565b60006117b2826112eb565b91506117bd836112eb565b9250817fffffffffffffffffffffffffffffffffffffffffffffffffffffffffffffffff04831182151516156117f6576117f5611570565b5b828202905092915050565b7f45524332303a2064656372656173656420616c6c6f77616e63652062656c6f7760008201527f207a65726f000000000000000000000000000000000000000000000000000000602082015250565b600061185d6025836111d8565b915061186882611801565b604082019050919050565b6000602082019050818103600083015261188c81611850565b9050919050565b7f4f776e61626c653a206e6577206f776e657220697320746865207a65726f206160008201527f6464726573730000000000000000000000000000000000000000000000000000602082015250565b60006118ef6026836111d8565b91506118fa82611893565b604082019050919050565b6000602082019050818103600083015261191e816118e2565b9050919050565b7f45524332303a20617070726f76652066726f6d20746865207a65726f2061646460008201527f7265737300000000000000000000000000000000000000000000000000000000602082015250565b60006119816024836111d8565b915061198c82611925565b604082019050919050565b600060208201905081810360008301526119b081611974565b9050919050565b7f45524332303a20617070726f766520746f20746865207a65726f20616464726560008201527f7373000000000000000000000000000000000000000000000000000000000000602082015250565b6000611a136022836111d8565b9150611a1e826119b7565b604082019050919050565b60006020820190508181036000830152611a4281611a06565b9050919050565b7f45524332303a20696e73756666696369656e7420616c6c6f77616e6365000000600082015250565b6000611a7f601d836111d8565b9150611a8a82611a49565b602082019050919050565b60006020820190508181036000830152611aae81611a72565b9050919050565b7f45524332303a207472616e736665722066726f6d20746865207a65726f20616460008201527f6472657373000000000000000000000000000000000000000000000000000000602082015250565b6000611b116025836111d8565b9150611b1c82611ab5565b604082019050919050565b60006020820190508181036000830152611b4081611b04565b9050919050565b7f45524332303a207472616e7366657220746f20746865207a65726f206164647260008201527f6573730000000000000000000000000000000000000000000000000000000000602082015250565b6000611ba36023836111d8565b9150611bae82611b47565b604082019050919050565b60006020820190508181036000830152611bd281611b96565b9050919050565b7f45524332303a207472616e7366657220616d6f756e742065786365656473206260008201527f616c616e63650000000000000000000000000000000000000000000000000000602082015250565b6000611c356026836111d8565b9150611c4082611bd9565b604082019050919050565b60006020820190508181036000830152611c6481611c28565b9050919050565b7f45524332303a206d696e7420746f20746865207a65726f206164647265737300600082015250565b6000611ca1601f836111d8565b9150611cac82611c6b565b602082019050919050565b60006020820190508181036000830152611cd081611c94565b9050919050565b7f4f776e61626c653a2063616c6c6572206973206e6f7420746865206f776e6572600082015250565b6000611d0d6020836111d8565b9150611d1882611cd7565b602082019050919050565b60006020820190508181036000830152611d3c81611d00565b905091905056fea2646970667358221220392d19ad2544c87a2ad2ca6febb0306d8e8f9a181b5c65be84fe66d22cfd403e64736f6c63430008090033",
  "linkReferences": {},
  "deployedLinkReferences": {}
}