{
  "_format": "hh-sol-artifact-1",
  "contractName": "MintifyNft",
  "sourceName": "contracts/MintifyNft.sol",
  "abi": [
    {
      "inputs": [
        {
          "internalType": "uint256",
          "name": "_maxTokenIds",
          "type": "uint256"
        }
      ],
      "stateMutability": "nonpayable",
      "type": "constructor"
    },
    {
      "anonymous": false,
      "inputs": [
        {
          "indexed": true,
          "internalType": "address",
          "name": "owner",
          "type": "address"
        },
        {
          "indexed": true,
          "internalType": "address",
          "name": "approved",
          "type": "address"
        },
        {
          "indexed": true,
          "internalType": "uint256",
          "name": "tokenId",
          "type": "uint256"
        }
      ],
      "name": "Approval",
      "type": "event"
    },
    {
      "anonymous": false,
      "inputs": [
        {
          "indexed": true,
          "internalType": "address",
          "name": "owner",
          "type": "address"
        },
        {
          "indexed": true,
          "internalType": "address",
          "name": "operator",
          "type": "address"
        },
        {
          "indexed": false,
          "internalType": "bool",
          "name": "approved",
          "type": "bool"
        }
      ],
      "name": "ApprovalForAll",
      "type": "event"
    },
    {
      "anonymous": false,
      "inputs": [
        {
          "indexed": true,
          "internalType": "address",
          "name": "previousOwner",
          "type": "address"
        },
        {
          "indexed": true,
          "internalType": "address",
          "name": "newOwner",
          "type": "address"
        }
      ],
      "name": "OwnershipTransferred",
      "type": "event"
    },
    {
      "anonymous": false,
      "inputs": [
        {
          "indexed": true,
          "internalType": "address",
          "name": "from",
          "type": "address"
        },
        {
          "indexed": true,
          "internalType": "address",
          "name": "to",
          "type": "address"
        },
        {
          "indexed": true,
          "internalType": "uint256",
          "name": "tokenId",
          "type": "uint256"
        }
      ],
      "name": "Transfer",
      "type": "event"
    },
    {
      "stateMutability": "payable",
      "type": "fallback"
    },
    {
      "inputs": [],
      "name": "_price",
      "outputs": [
        {
          "internalType": "uint256",
          "name": "",
          "type": "uint256"
        }
      ],
      "stateMutability": "view",
      "type": "function"
    },
    {
      "inputs": [
        {
          "internalType": "address",
          "name": "to",
          "type": "address"
        },
        {
          "internalType": "uint256",
          "name": "tokenId",
          "type": "uint256"
        }
      ],
      "name": "approve",
      "outputs": [],
      "stateMutability": "nonpayable",
      "type": "function"
    },
    {
      "inputs": [
        {
          "internalType": "address",
          "name": "owner",
          "type": "address"
        }
      ],
      "name": "balanceOf",
      "outputs": [
        {
          "internalType": "uint256",
          "name": "",
          "type": "uint256"
        }
      ],
      "stateMutability": "view",
      "type": "function"
    },
    {
      "inputs": [
        {
          "internalType": "uint256",
          "name": "tokenId",
          "type": "uint256"
        }
      ],
      "name": "getApproved",
      "outputs": [
        {
          "internalType": "address",
          "name": "",
          "type": "address"
        }
      ],
      "stateMutability": "view",
      "type": "function"
    },
    {
      "inputs": [
        {
          "internalType": "address",
          "name": "owner",
          "type": "address"
        },
        {
          "internalType": "address",
          "name": "operator",
          "type": "address"
        }
      ],
      "name": "isApprovedForAll",
      "outputs": [
        {
          "internalType": "bool",
          "name": "",
          "type": "bool"
        }
      ],
      "stateMutability": "view",
      "type": "function"
    },
    {
      "inputs": [],
      "name": "maxTokenIds",
      "outputs": [
        {
          "internalType": "uint256",
          "name": "",
          "type": "uint256"
        }
      ],
      "stateMutability": "view",
      "type": "function"
    },
    {
      "inputs": [],
      "name": "name",
      "outputs": [
        {
          "internalType": "string",
          "name": "",
          "type": "string"
        }
      ],
      "stateMutability": "view",
      "type": "function"
    },
    {
      "inputs": [],
      "name": "owner",
      "outputs": [
        {
          "internalType": "address",
          "name": "",
          "type": "address"
        }
      ],
      "stateMutability": "view",
      "type": "function"
    },
    {
      "inputs": [
        {
          "internalType": "uint256",
          "name": "tokenId",
          "type": "uint256"
        }
      ],
      "name": "ownerOf",
      "outputs": [
        {
          "internalType": "address",
          "name": "",
          "type": "address"
        }
      ],
      "stateMutability": "view",
      "type": "function"
    },
    {
      "inputs": [],
      "name": "renounceOwnership",
      "outputs": [],
      "stateMutability": "nonpayable",
      "type": "function"
    },
    {
      "inputs": [
        {
          "internalType": "uint256",
          "name": "_tokenId",
          "type": "uint256"
        },
        {
          "internalType": "string",
          "name": "_tokenURI",
          "type": "string"
        }
      ],
      "name": "safeMint",
      "outputs": [],
      "stateMutability": "payable",
      "type": "function"
    },
    {
      "inputs": [
        {
          "internalType": "address",
          "name": "from",
          "type": "address"
        },
        {
          "internalType": "address",
          "name": "to",
          "type": "address"
        },
        {
          "internalType": "uint256",
          "name": "tokenId",
          "type": "uint256"
        }
      ],
      "name": "safeTransferFrom",
      "outputs": [],
      "stateMutability": "nonpayable",
      "type": "function"
    },
    {
      "inputs": [
        {
          "internalType": "address",
          "name": "from",
          "type": "address"
        },
        {
          "internalType": "address",
          "name": "to",
          "type": "address"
        },
        {
          "internalType": "uint256",
          "name": "tokenId",
          "type": "uint256"
        },
        {
          "internalType": "bytes",
          "name": "data",
          "type": "bytes"
        }
      ],
      "name": "safeTransferFrom",
      "outputs": [],
      "stateMutability": "nonpayable",
      "type": "function"
    },
    {
      "inputs": [
        {
          "internalType": "address",
          "name": "operator",
          "type": "address"
        },
        {
          "internalType": "bool",
          "name": "approved",
          "type": "bool"
        }
      ],
      "name": "setApprovalForAll",
      "outputs": [],
      "stateMutability": "nonpayable",
      "type": "function"
    },
    {
      "inputs": [
        {
          "internalType": "bytes4",
          "name": "interfaceId",
          "type": "bytes4"
        }
      ],
      "name": "supportsInterface",
      "outputs": [
        {
          "internalType": "bool",
          "name": "",
          "type": "bool"
        }
      ],
      "stateMutability": "view",
      "type": "function"
    },
    {
      "inputs": [],
      "name": "symbol",
      "outputs": [
        {
          "internalType": "string",
          "name": "",
          "type": "string"
        }
      ],
      "stateMutability": "view",
      "type": "function"
    },
    {
      "inputs": [
        {
          "internalType": "uint256",
          "name": "index",
          "type": "uint256"
        }
      ],
      "name": "tokenByIndex",
      "outputs": [
        {
          "internalType": "uint256",
          "name": "",
          "type": "uint256"
        }
      ],
      "stateMutability": "view",
      "type": "function"
    },
    {
      "inputs": [],
      "name": "tokenIds",
      "outputs": [
        {
          "internalType": "uint256",
          "name": "",
          "type": "uint256"
        }
      ],
      "stateMutability": "view",
      "type": "function"
    },
    {
      "inputs": [
        {
          "internalType": "address",
          "name": "owner",
          "type": "address"
        },
        {
          "internalType": "uint256",
          "name": "index",
          "type": "uint256"
        }
      ],
      "name": "tokenOfOwnerByIndex",
      "outputs": [
        {
          "internalType": "uint256",
          "name": "",
          "type": "uint256"
        }
      ],
      "stateMutability": "view",
      "type": "function"
    },
    {
      "inputs": [
        {
          "internalType": "uint256",
          "name": "tokenId",
          "type": "uint256"
        }
      ],
      "name": "tokenURI",
      "outputs": [
        {
          "internalType": "string",
          "name": "",
          "type": "string"
        }
      ],
      "stateMutability": "view",
      "type": "function"
    },
    {
      "inputs": [],
      "name": "totalSupply",
      "outputs": [
        {
          "internalType": "uint256",
          "name": "",
          "type": "uint256"
        }
      ],
      "stateMutability": "view",
      "type": "function"
    },
    {
      "inputs": [
        {
          "internalType": "address",
          "name": "from",
          "type": "address"
        },
        {
          "internalType": "address",
          "name": "to",
          "type": "address"
        },
        {
          "internalType": "uint256",
          "name": "tokenId",
          "type": "uint256"
        }
      ],
      "name": "transferFrom",
      "outputs": [],
      "stateMutability": "nonpayable",
      "type": "function"
    },
    {
      "inputs": [
        {
          "internalType": "address",
          "name": "newOwner",
          "type": "address"
        }
      ],
      "name": "transferOwnership",
      "outputs": [],
      "stateMutability": "nonpayable",
      "type": "function"
    },
    {
      "inputs": [],
      "name": "withdraw",
      "outputs": [],
      "stateMutability": "nonpayable",
      "type": "function"
    },
    {
      "stateMutability": "payable",
      "type": "receive"
    }
  ],
  "bytecode": "0x6080604052671bc16d674ec80000600c553480156200001d57600080fd5b5060405162003e0538038062003e058339818101604052810190620000439190620002cf565b6040518060400160405280600d81526020017f4d696e7469667920546f6b656e000000000000000000000000000000000000008152506040518060400160405280600281526020017f4d540000000000000000000000000000000000000000000000000000000000008152508160009080519060200190620000c7929190620001df565b508060019080519060200190620000e0929190620001df565b50505062000103620000f76200011160201b60201c565b6200011960201b60201c565b80600d819055505062000366565b600033905090565b6000600b60009054906101000a900473ffffffffffffffffffffffffffffffffffffffff16905081600b60006101000a81548173ffffffffffffffffffffffffffffffffffffffff021916908373ffffffffffffffffffffffffffffffffffffffff1602179055508173ffffffffffffffffffffffffffffffffffffffff168173ffffffffffffffffffffffffffffffffffffffff167f8be0079c531659141344cd1fd0a4f28419497f9722a3daafe3b4186f6b6457e060405160405180910390a35050565b828054620001ed9062000330565b90600052602060002090601f0160209004810192826200021157600085556200025d565b82601f106200022c57805160ff19168380011785556200025d565b828001600101855582156200025d579182015b828111156200025c5782518255916020019190600101906200023f565b5b5090506200026c919062000270565b5090565b5b808211156200028b57600081600090555060010162000271565b5090565b600080fd5b6000819050919050565b620002a98162000294565b8114620002b557600080fd5b50565b600081519050620002c9816200029e565b92915050565b600060208284031215620002e857620002e76200028f565b5b6000620002f884828501620002b8565b91505092915050565b7f4e487b7100000000000000000000000000000000000000000000000000000000600052602260045260246000fd5b600060028204905060018216806200034957607f821691505b6020821081141562000360576200035f62000301565b5b50919050565b613a8f80620003766000396000f3fe60806040526004361061014f5760003560e01c80636352211e116100b6578063a22cb4651161006f578063a22cb4651461049c578063b88d4fde146104c5578063bb96e082146104ee578063c87b56dd1461050a578063e985e9c514610547578063f2fde38b1461058457610156565b80636352211e1461038a57806370a08231146103c7578063714cff5614610404578063715018a61461042f5780638da5cb5b1461044657806395d89b411461047157610156565b806323b872dd1161010857806323b872dd1461027c5780632f745c59146102a55780633ccfd60b146102e257806342842e0e146102f95780634f6ccce7146103225780635f7696211461035f57610156565b806301ffc9a71461015857806306fdde0314610195578063081812fc146101c0578063095ea7b3146101fd57806318160ddd14610226578063235b6ea11461025157610156565b3661015657005b005b34801561016457600080fd5b5061017f600480360381019061017a919061269d565b6105ad565b60405161018c91906126e5565b60405180910390f35b3480156101a157600080fd5b506101aa6105bf565b6040516101b79190612799565b60405180910390f35b3480156101cc57600080fd5b506101e760048036038101906101e291906127f1565b610651565b6040516101f4919061285f565b60405180910390f35b34801561020957600080fd5b50610224600480360381019061021f91906128a6565b610697565b005b34801561023257600080fd5b5061023b6107af565b60405161024891906128f5565b60405180910390f35b34801561025d57600080fd5b506102666107bc565b60405161027391906128f5565b60405180910390f35b34801561028857600080fd5b506102a3600480360381019061029e9190612910565b6107c2565b005b3480156102b157600080fd5b506102cc60048036038101906102c791906128a6565b610822565b6040516102d991906128f5565b60405180910390f35b3480156102ee57600080fd5b506102f76108c7565b005b34801561030557600080fd5b50610320600480360381019061031b9190612910565b610991565b005b34801561032e57600080fd5b50610349600480360381019061034491906127f1565b6109b1565b60405161035691906128f5565b60405180910390f35b34801561036b57600080fd5b50610374610a22565b60405161038191906128f5565b60405180910390f35b34801561039657600080fd5b506103b160048036038101906103ac91906127f1565b610a28565b6040516103be919061285f565b60405180910390f35b3480156103d357600080fd5b506103ee60048036038101906103e99190612963565b610aaf565b6040516103fb91906128f5565b60405180910390f35b34801561041057600080fd5b50610419610b67565b60405161042691906128f5565b60405180910390f35b34801561043b57600080fd5b50610444610b6d565b005b34801561045257600080fd5b5061045b610b81565b604051610468919061285f565b60405180910390f35b34801561047d57600080fd5b50610486610bab565b6040516104939190612799565b60405180910390f35b3480156104a857600080fd5b506104c360048036038101906104be91906129bc565b610c3d565b005b3480156104d157600080fd5b506104ec60048036038101906104e79190612b31565b610c53565b005b61050860048036038101906105039190612c55565b610cb5565b005b34801561051657600080fd5b50610531600480360381019061052c91906127f1565b610d72565b60405161053e9190612799565b60405180910390f35b34801561055357600080fd5b5061056e60048036038101906105699190612cb1565b610d84565b60405161057b91906126e5565b60405180910390f35b34801561059057600080fd5b506105ab60048036038101906105a69190612963565b610e18565b005b60006105b882610e9c565b9050919050565b6060600080546105ce90612d20565b80601f01602080910402602001604051908101604052809291908181526020018280546105fa90612d20565b80156106475780601f1061061c57610100808354040283529160200191610647565b820191906000526020600020905b81548152906001019060200180831161062a57829003601f168201915b5050505050905090565b600061065c82610f16565b6004600083815260200190815260200160002060009054906101000a900473ffffffffffffffffffffffffffffffffffffffff169050919050565b60006106a282610a28565b90508073ffffffffffffffffffffffffffffffffffffffff168373ffffffffffffffffffffffffffffffffffffffff161415610713576040517f08c379a000000000000000000000000000000000000000000000000000000000815260040161070a90612dc4565b60405180910390fd5b8073ffffffffffffffffffffffffffffffffffffffff16610732610f61565b73ffffffffffffffffffffffffffffffffffffffff16148061076157506107608161075b610f61565b610d84565b5b6107a0576040517f08c379a000000000000000000000000000000000000000000000000000000000815260040161079790612e56565b60405180910390fd5b6107aa8383610f69565b505050565b6000600880549050905090565b600c5481565b6107d36107cd610f61565b82611022565b610812576040517f08c379a000000000000000000000000000000000000000000000000000000000815260040161080990612ee8565b60405180910390fd5b61081d8383836110b7565b505050565b600061082d83610aaf565b821061086e576040517f08c379a000000000000000000000000000000000000000000000000000000000815260040161086590612f7a565b60405180910390fd5b600660008473ffffffffffffffffffffffffffffffffffffffff1673ffffffffffffffffffffffffffffffffffffffff168152602001908152602001600020600083815260200190815260200160002054905092915050565b6108cf6113b1565b60006108d9610b81565b9050600047905060008273ffffffffffffffffffffffffffffffffffffffff168260405161090690612fcb565b60006040518083038185875af1925050503d8060008114610943576040519150601f19603f3d011682016040523d82523d6000602084013e610948565b606091505b505090508061098c576040517f08c379a00000000000000000000000000000000000000000000000000000000081526004016109839061302c565b60405180910390fd5b505050565b6109ac83838360405180602001604052806000815250610c53565b505050565b60006109bb6107af565b82106109fc576040517f08c379a00000000000000000000000000000000000000000000000000000000081526004016109f3906130be565b60405180910390fd5b60088281548110610a1057610a0f6130de565b5b90600052602060002001549050919050565b600d5481565b600080610a348361142f565b9050600073ffffffffffffffffffffffffffffffffffffffff168173ffffffffffffffffffffffffffffffffffffffff161415610aa6576040517f08c379a0000000000000000000000000000000000000000000000000000000008152600401610a9d90613159565b60405180910390fd5b80915050919050565b60008073ffffffffffffffffffffffffffffffffffffffff168273ffffffffffffffffffffffffffffffffffffffff161415610b20576040517f08c379a0000000000000000000000000000000000000000000000000000000008152600401610b17906131eb565b60405180910390fd5b600360008373ffffffffffffffffffffffffffffffffffffffff1673ffffffffffffffffffffffffffffffffffffffff168152602001908152602001600020549050919050565b600e5481565b610b756113b1565b610b7f600061146c565b565b6000600b60009054906101000a900473ffffffffffffffffffffffffffffffffffffffff16905090565b606060018054610bba90612d20565b80601f0160208091040260200160405190810160405280929190818152602001828054610be690612d20565b8015610c335780601f10610c0857610100808354040283529160200191610c33565b820191906000526020600020905b815481529060010190602001808311610c1657829003601f168201915b5050505050905090565b610c4f610c48610f61565b8383611532565b5050565b610c64610c5e610f61565b83611022565b610ca3576040517f08c379a0000000000000000000000000000000000000000000000000000000008152600401610c9a90612ee8565b60405180910390fd5b610caf8484848461169f565b50505050565b600d54600e5410610cfb576040517f08c379a0000000000000000000000000000000000000000000000000000000008152600401610cf290613257565b60405180910390fd5b600c54341015610d40576040517f08c379a0000000000000000000000000000000000000000000000000000000008152600401610d37906132c3565b60405180910390fd5b610d4a33836116fb565b610d548282611719565b6001600e6000828254610d679190613312565b925050819055505050565b6060610d7d8261178d565b9050919050565b6000600560008473ffffffffffffffffffffffffffffffffffffffff1673ffffffffffffffffffffffffffffffffffffffff16815260200190815260200160002060008373ffffffffffffffffffffffffffffffffffffffff1673ffffffffffffffffffffffffffffffffffffffff16815260200190815260200160002060009054906101000a900460ff16905092915050565b610e206113b1565b600073ffffffffffffffffffffffffffffffffffffffff168173ffffffffffffffffffffffffffffffffffffffff161415610e90576040517f08c379a0000000000000000000000000000000000000000000000000000000008152600401610e87906133da565b60405180910390fd5b610e998161146c565b50565b60007f780e9d63000000000000000000000000000000000000000000000000000000007bffffffffffffffffffffffffffffffffffffffffffffffffffffffff1916827bffffffffffffffffffffffffffffffffffffffffffffffffffffffff19161480610f0f5750610f0e826118a0565b5b9050919050565b610f1f81611982565b610f5e576040517f08c379a0000000000000000000000000000000000000000000000000000000008152600401610f5590613159565b60405180910390fd5b50565b600033905090565b816004600083815260200190815260200160002060006101000a81548173ffffffffffffffffffffffffffffffffffffffff021916908373ffffffffffffffffffffffffffffffffffffffff160217905550808273ffffffffffffffffffffffffffffffffffffffff16610fdc83610a28565b73ffffffffffffffffffffffffffffffffffffffff167f8c5be1e5ebec7d5bd14f71427d1e84f3dd0314c0f7b2291e5b200ac8c7c3b92560405160405180910390a45050565b60008061102e83610a28565b90508073ffffffffffffffffffffffffffffffffffffffff168473ffffffffffffffffffffffffffffffffffffffff161480611070575061106f8185610d84565b5b806110ae57508373ffffffffffffffffffffffffffffffffffffffff1661109684610651565b73ffffffffffffffffffffffffffffffffffffffff16145b91505092915050565b8273ffffffffffffffffffffffffffffffffffffffff166110d782610a28565b73ffffffffffffffffffffffffffffffffffffffff161461112d576040517f08c379a00000000000000000000000000000000000000000000000000000000081526004016111249061346c565b60405180910390fd5b600073ffffffffffffffffffffffffffffffffffffffff168273ffffffffffffffffffffffffffffffffffffffff16141561119d576040517f08c379a0000000000000000000000000000000000000000000000000000000008152600401611194906134fe565b60405180910390fd5b6111aa83838360016119c3565b8273ffffffffffffffffffffffffffffffffffffffff166111ca82610a28565b73ffffffffffffffffffffffffffffffffffffffff1614611220576040517f08c379a00000000000000000000000000000000000000000000000000000000081526004016112179061346c565b60405180910390fd5b6004600082815260200190815260200160002060006101000a81549073ffffffffffffffffffffffffffffffffffffffff02191690556001600360008573ffffffffffffffffffffffffffffffffffffffff1673ffffffffffffffffffffffffffffffffffffffff168152602001908152602001600020600082825403925050819055506001600360008473ffffffffffffffffffffffffffffffffffffffff1673ffffffffffffffffffffffffffffffffffffffff16815260200190815260200160002060008282540192505081905550816002600083815260200190815260200160002060006101000a81548173ffffffffffffffffffffffffffffffffffffffff021916908373ffffffffffffffffffffffffffffffffffffffff160217905550808273ffffffffffffffffffffffffffffffffffffffff168473ffffffffffffffffffffffffffffffffffffffff167fddf252ad1be2c89b69c2b068fc378daa952ba7f163c4a11628f55a4df523b3ef60405160405180910390a46113ac83838360016119d5565b505050565b6113b9610f61565b73ffffffffffffffffffffffffffffffffffffffff166113d7610b81565b73ffffffffffffffffffffffffffffffffffffffff161461142d576040517f08c379a00000000000000000000000000000000000000000000000000000000081526004016114249061356a565b60405180910390fd5b565b60006002600083815260200190815260200160002060009054906101000a900473ffffffffffffffffffffffffffffffffffffffff169050919050565b6000600b60009054906101000a900473ffffffffffffffffffffffffffffffffffffffff16905081600b60006101000a81548173ffffffffffffffffffffffffffffffffffffffff021916908373ffffffffffffffffffffffffffffffffffffffff1602179055508173ffffffffffffffffffffffffffffffffffffffff168173ffffffffffffffffffffffffffffffffffffffff167f8be0079c531659141344cd1fd0a4f28419497f9722a3daafe3b4186f6b6457e060405160405180910390a35050565b8173ffffffffffffffffffffffffffffffffffffffff168373ffffffffffffffffffffffffffffffffffffffff1614156115a1576040517f08c379a0000000000000000000000000000000000000000000000000000000008152600401611598906135d6565b60405180910390fd5b80600560008573ffffffffffffffffffffffffffffffffffffffff1673ffffffffffffffffffffffffffffffffffffffff16815260200190815260200160002060008473ffffffffffffffffffffffffffffffffffffffff1673ffffffffffffffffffffffffffffffffffffffff16815260200190815260200160002060006101000a81548160ff0219169083151502179055508173ffffffffffffffffffffffffffffffffffffffff168373ffffffffffffffffffffffffffffffffffffffff167f17307eab39ab6107e8899845ad3d59bd9653f200f220920489ca2b5937696c318360405161169291906126e5565b60405180910390a3505050565b6116aa8484846110b7565b6116b6848484846119db565b6116f5576040517f08c379a00000000000000000000000000000000000000000000000000000000081526004016116ec90613668565b60405180910390fd5b50505050565b611715828260405180602001604052806000815250611b72565b5050565b61172282611982565b611761576040517f08c379a0000000000000000000000000000000000000000000000000000000008152600401611758906136fa565b60405180910390fd5b80600a6000848152602001908152602001600020908051906020019061178892919061258e565b505050565b606061179882610f16565b6000600a600084815260200190815260200160002080546117b890612d20565b80601f01602080910402602001604051908101604052809291908181526020018280546117e490612d20565b80156118315780601f1061180657610100808354040283529160200191611831565b820191906000526020600020905b81548152906001019060200180831161181457829003601f168201915b505050505090506000611842611bcd565b905060008151141561185857819250505061189b565b60008251111561188d578082604051602001611875929190613756565b6040516020818303038152906040529250505061189b565b61189684611be4565b925050505b919050565b60007f80ac58cd000000000000000000000000000000000000000000000000000000007bffffffffffffffffffffffffffffffffffffffffffffffffffffffff1916827bffffffffffffffffffffffffffffffffffffffffffffffffffffffff1916148061196b57507f5b5e139f000000000000000000000000000000000000000000000000000000007bffffffffffffffffffffffffffffffffffffffffffffffffffffffff1916827bffffffffffffffffffffffffffffffffffffffffffffffffffffffff1916145b8061197b575061197a82611c4c565b5b9050919050565b60008073ffffffffffffffffffffffffffffffffffffffff166119a48361142f565b73ffffffffffffffffffffffffffffffffffffffff1614159050919050565b6119cf84848484611cb6565b50505050565b50505050565b60006119fc8473ffffffffffffffffffffffffffffffffffffffff16611e16565b15611b65578373ffffffffffffffffffffffffffffffffffffffff1663150b7a02611a25610f61565b8786866040518563ffffffff1660e01b8152600401611a4794939291906137cf565b602060405180830381600087803b158015611a6157600080fd5b505af1925050508015611a9257506040513d601f19601f82011682018060405250810190611a8f9190613830565b60015b611b15573d8060008114611ac2576040519150601f19603f3d011682016040523d82523d6000602084013e611ac7565b606091505b50600081511415611b0d576040517f08c379a0000000000000000000000000000000000000000000000000000000008152600401611b0490613668565b60405180910390fd5b805181602001fd5b63150b7a0260e01b7bffffffffffffffffffffffffffffffffffffffffffffffffffffffff1916817bffffffffffffffffffffffffffffffffffffffffffffffffffffffff191614915050611b6a565b600190505b949350505050565b611b7c8383611e39565b611b8960008484846119db565b611bc8576040517f08c379a0000000000000000000000000000000000000000000000000000000008152600401611bbf90613668565b60405180910390fd5b505050565b606060405180602001604052806000815250905090565b6060611bef82610f16565b6000611bf9611bcd565b90506000815111611c195760405180602001604052806000815250611c44565b80611c2384612057565b604051602001611c34929190613756565b6040516020818303038152906040525b915050919050565b60007f01ffc9a7000000000000000000000000000000000000000000000000000000007bffffffffffffffffffffffffffffffffffffffffffffffffffffffff1916827bffffffffffffffffffffffffffffffffffffffffffffffffffffffff1916149050919050565b611cc28484848461212f565b6001811115611d06576040517f08c379a0000000000000000000000000000000000000000000000000000000008152600401611cfd906138cf565b60405180910390fd5b6000829050600073ffffffffffffffffffffffffffffffffffffffff168573ffffffffffffffffffffffffffffffffffffffff161415611d4e57611d4981612135565b611d8d565b8373ffffffffffffffffffffffffffffffffffffffff168573ffffffffffffffffffffffffffffffffffffffff1614611d8c57611d8b858261217e565b5b5b600073ffffffffffffffffffffffffffffffffffffffff168473ffffffffffffffffffffffffffffffffffffffff161415611dd057611dcb816122eb565b611e0f565b8473ffffffffffffffffffffffffffffffffffffffff168473ffffffffffffffffffffffffffffffffffffffff1614611e0e57611e0d84826123bc565b5b5b5050505050565b6000808273ffffffffffffffffffffffffffffffffffffffff163b119050919050565b600073ffffffffffffffffffffffffffffffffffffffff168273ffffffffffffffffffffffffffffffffffffffff161415611ea9576040517f08c379a0000000000000000000000000000000000000000000000000000000008152600401611ea09061393b565b60405180910390fd5b611eb281611982565b15611ef2576040517f08c379a0000000000000000000000000000000000000000000000000000000008152600401611ee9906139a7565b60405180910390fd5b611f006000838360016119c3565b611f0981611982565b15611f49576040517f08c379a0000000000000000000000000000000000000000000000000000000008152600401611f40906139a7565b60405180910390fd5b6001600360008473ffffffffffffffffffffffffffffffffffffffff1673ffffffffffffffffffffffffffffffffffffffff16815260200190815260200160002060008282540192505081905550816002600083815260200190815260200160002060006101000a81548173ffffffffffffffffffffffffffffffffffffffff021916908373ffffffffffffffffffffffffffffffffffffffff160217905550808273ffffffffffffffffffffffffffffffffffffffff16600073ffffffffffffffffffffffffffffffffffffffff167fddf252ad1be2c89b69c2b068fc378daa952ba7f163c4a11628f55a4df523b3ef60405160405180910390a46120536000838360016119d5565b5050565b6060600060016120668461243b565b01905060008167ffffffffffffffff81111561208557612084612a06565b5b6040519080825280601f01601f1916602001820160405280156120b75781602001600182028036833780820191505090505b509050600082602001820190505b600115612124578080600190039150507f3031323334353637383961626364656600000000000000000000000000000000600a86061a8153600a858161210e5761210d6139c7565b5b049450600085141561211f57612124565b6120c5565b819350505050919050565b50505050565b6008805490506009600083815260200190815260200160002081905550600881908060018154018082558091505060019003906000526020600020016000909190919091505550565b6000600161218b84610aaf565b61219591906139f6565b905060006007600084815260200190815260200160002054905081811461227a576000600660008673ffffffffffffffffffffffffffffffffffffffff1673ffffffffffffffffffffffffffffffffffffffff168152602001908152602001600020600084815260200190815260200160002054905080600660008773ffffffffffffffffffffffffffffffffffffffff1673ffffffffffffffffffffffffffffffffffffffff168152602001908152602001600020600084815260200190815260200160002081905550816007600083815260200190815260200160002081905550505b6007600084815260200190815260200160002060009055600660008573ffffffffffffffffffffffffffffffffffffffff1673ffffffffffffffffffffffffffffffffffffffff16815260200190815260200160002060008381526020019081526020016000206000905550505050565b600060016008805490506122ff91906139f6565b905060006009600084815260200190815260200160002054905060006008838154811061232f5761232e6130de565b5b906000526020600020015490508060088381548110612351576123506130de565b5b9060005260206000200181905550816009600083815260200190815260200160002081905550600960008581526020019081526020016000206000905560088054806123a05761239f613a2a565b5b6001900381819060005260206000200160009055905550505050565b60006123c783610aaf565b905081600660008573ffffffffffffffffffffffffffffffffffffffff1673ffffffffffffffffffffffffffffffffffffffff168152602001908152602001600020600083815260200190815260200160002081905550806007600084815260200190815260200160002081905550505050565b600080600090507a184f03e93ff9f4daa797ed6e38ed64bf6a1f0100000000000000008310612499577a184f03e93ff9f4daa797ed6e38ed64bf6a1f010000000000000000838161248f5761248e6139c7565b5b0492506040810190505b6d04ee2d6d415b85acef810000000083106124d6576d04ee2d6d415b85acef810000000083816124cc576124cb6139c7565b5b0492506020810190505b662386f26fc10000831061250557662386f26fc1000083816124fb576124fa6139c7565b5b0492506010810190505b6305f5e100831061252e576305f5e1008381612524576125236139c7565b5b0492506008810190505b6127108310612553576127108381612549576125486139c7565b5b0492506004810190505b60648310612576576064838161256c5761256b6139c7565b5b0492506002810190505b600a8310612585576001810190505b80915050919050565b82805461259a90612d20565b90600052602060002090601f0160209004810192826125bc5760008555612603565b82601f106125d557805160ff1916838001178555612603565b82800160010185558215612603579182015b828111156126025782518255916020019190600101906125e7565b5b5090506126109190612614565b5090565b5b8082111561262d576000816000905550600101612615565b5090565b6000604051905090565b600080fd5b600080fd5b60007fffffffff0000000000000000000000000000000000000000000000000000000082169050919050565b61267a81612645565b811461268557600080fd5b50565b60008135905061269781612671565b92915050565b6000602082840312156126b3576126b261263b565b5b60006126c184828501612688565b91505092915050565b60008115159050919050565b6126df816126ca565b82525050565b60006020820190506126fa60008301846126d6565b92915050565b600081519050919050565b600082825260208201905092915050565b60005b8381101561273a57808201518184015260208101905061271f565b83811115612749576000848401525b50505050565b6000601f19601f8301169050919050565b600061276b82612700565b612775818561270b565b935061278581856020860161271c565b61278e8161274f565b840191505092915050565b600060208201905081810360008301526127b38184612760565b905092915050565b6000819050919050565b6127ce816127bb565b81146127d957600080fd5b50565b6000813590506127eb816127c5565b92915050565b6000602082840312156128075761280661263b565b5b6000612815848285016127dc565b91505092915050565b600073ffffffffffffffffffffffffffffffffffffffff82169050919050565b60006128498261281e565b9050919050565b6128598161283e565b82525050565b60006020820190506128746000830184612850565b92915050565b6128838161283e565b811461288e57600080fd5b50565b6000813590506128a08161287a565b92915050565b600080604083850312156128bd576128bc61263b565b5b60006128cb85828601612891565b92505060206128dc858286016127dc565b9150509250929050565b6128ef816127bb565b82525050565b600060208201905061290a60008301846128e6565b92915050565b6000806000606084860312156129295761292861263b565b5b600061293786828701612891565b935050602061294886828701612891565b9250506040612959868287016127dc565b9150509250925092565b6000602082840312156129795761297861263b565b5b600061298784828501612891565b91505092915050565b612999816126ca565b81146129a457600080fd5b50565b6000813590506129b681612990565b92915050565b600080604083850312156129d3576129d261263b565b5b60006129e185828601612891565b92505060206129f2858286016129a7565b9150509250929050565b600080fd5b600080fd5b7f4e487b7100000000000000000000000000000000000000000000000000000000600052604160045260246000fd5b612a3e8261274f565b810181811067ffffffffffffffff82111715612a5d57612a5c612a06565b5b80604052505050565b6000612a70612631565b9050612a7c8282612a35565b919050565b600067ffffffffffffffff821115612a9c57612a9b612a06565b5b612aa58261274f565b9050602081019050919050565b82818337600083830152505050565b6000612ad4612acf84612a81565b612a66565b905082815260208101848484011115612af057612aef612a01565b5b612afb848285612ab2565b509392505050565b600082601f830112612b1857612b176129fc565b5b8135612b28848260208601612ac1565b91505092915050565b60008060008060808587031215612b4b57612b4a61263b565b5b6000612b5987828801612891565b9450506020612b6a87828801612891565b9350506040612b7b878288016127dc565b925050606085013567ffffffffffffffff811115612b9c57612b9b612640565b5b612ba887828801612b03565b91505092959194509250565b600067ffffffffffffffff821115612bcf57612bce612a06565b5b612bd88261274f565b9050602081019050919050565b6000612bf8612bf384612bb4565b612a66565b905082815260208101848484011115612c1457612c13612a01565b5b612c1f848285612ab2565b509392505050565b600082601f830112612c3c57612c3b6129fc565b5b8135612c4c848260208601612be5565b91505092915050565b60008060408385031215612c6c57612c6b61263b565b5b6000612c7a858286016127dc565b925050602083013567ffffffffffffffff811115612c9b57612c9a612640565b5b612ca785828601612c27565b9150509250929050565b60008060408385031215612cc857612cc761263b565b5b6000612cd685828601612891565b9250506020612ce785828601612891565b9150509250929050565b7f4e487b7100000000000000000000000000000000000000000000000000000000600052602260045260246000fd5b60006002820490506001821680612d3857607f821691505b60208210811415612d4c57612d4b612cf1565b5b50919050565b7f4552433732313a20617070726f76616c20746f2063757272656e74206f776e6560008201527f7200000000000000000000000000000000000000000000000000000000000000602082015250565b6000612dae60218361270b565b9150612db982612d52565b604082019050919050565b60006020820190508181036000830152612ddd81612da1565b9050919050565b7f4552433732313a20617070726f76652063616c6c6572206973206e6f7420746f60008201527f6b656e206f776e6572206f7220617070726f76656420666f7220616c6c000000602082015250565b6000612e40603d8361270b565b9150612e4b82612de4565b604082019050919050565b60006020820190508181036000830152612e6f81612e33565b9050919050565b7f4552433732313a2063616c6c6572206973206e6f7420746f6b656e206f776e6560008201527f72206f7220617070726f76656400000000000000000000000000000000000000602082015250565b6000612ed2602d8361270b565b9150612edd82612e76565b604082019050919050565b60006020820190508181036000830152612f0181612ec5565b9050919050565b7f455243373231456e756d657261626c653a206f776e657220696e646578206f7560008201527f74206f6620626f756e6473000000000000000000000000000000000000000000602082015250565b6000612f64602b8361270b565b9150612f6f82612f08565b604082019050919050565b60006020820190508181036000830152612f9381612f57565b9050919050565b600081905092915050565b50565b6000612fb5600083612f9a565b9150612fc082612fa5565b600082019050919050565b6000612fd682612fa8565b9150819050919050565b7f4661696c656420746f2073656e6420616d6f756e740000000000000000000000600082015250565b600061301660158361270b565b915061302182612fe0565b602082019050919050565b6000602082019050818103600083015261304581613009565b9050919050565b7f455243373231456e756d657261626c653a20676c6f62616c20696e646578206f60008201527f7574206f6620626f756e64730000000000000000000000000000000000000000602082015250565b60006130a8602c8361270b565b91506130b38261304c565b604082019050919050565b600060208201905081810360008301526130d78161309b565b9050919050565b7f4e487b7100000000000000000000000000000000000000000000000000000000600052603260045260246000fd5b7f4552433732313a20696e76616c696420746f6b656e2049440000000000000000600082015250565b600061314360188361270b565b915061314e8261310d565b602082019050919050565b6000602082019050818103600083015261317281613136565b9050919050565b7f4552433732313a2061646472657373207a65726f206973206e6f74206120766160008201527f6c6964206f776e65720000000000000000000000000000000000000000000000602082015250565b60006131d560298361270b565b91506131e082613179565b604082019050919050565b60006020820190508181036000830152613204816131c8565b9050919050565b7f457863656564206d6178696d756d204e465420737570706c7900000000000000600082015250565b600061324160198361270b565b915061324c8261320b565b602082019050919050565b6000602082019050818103600083015261327081613234565b9050919050565b7f45746865722073656e74206973206e6f7420636f727265637400000000000000600082015250565b60006132ad60198361270b565b91506132b882613277565b602082019050919050565b600060208201905081810360008301526132dc816132a0565b9050919050565b7f4e487b7100000000000000000000000000000000000000000000000000000000600052601160045260246000fd5b600061331d826127bb565b9150613328836127bb565b9250827fffffffffffffffffffffffffffffffffffffffffffffffffffffffffffffffff0382111561335d5761335c6132e3565b5b828201905092915050565b7f4f776e61626c653a206e6577206f776e657220697320746865207a65726f206160008201527f6464726573730000000000000000000000000000000000000000000000000000602082015250565b60006133c460268361270b565b91506133cf82613368565b604082019050919050565b600060208201905081810360008301526133f3816133b7565b9050919050565b7f4552433732313a207472616e736665722066726f6d20696e636f72726563742060008201527f6f776e6572000000000000000000000000000000000000000000000000000000602082015250565b600061345660258361270b565b9150613461826133fa565b604082019050919050565b6000602082019050818103600083015261348581613449565b9050919050565b7f4552433732313a207472616e7366657220746f20746865207a65726f2061646460008201527f7265737300000000000000000000000000000000000000000000000000000000602082015250565b60006134e860248361270b565b91506134f38261348c565b604082019050919050565b60006020820190508181036000830152613517816134db565b9050919050565b7f4f776e61626c653a2063616c6c6572206973206e6f7420746865206f776e6572600082015250565b600061355460208361270b565b915061355f8261351e565b602082019050919050565b6000602082019050818103600083015261358381613547565b9050919050565b7f4552433732313a20617070726f766520746f2063616c6c657200000000000000600082015250565b60006135c060198361270b565b91506135cb8261358a565b602082019050919050565b600060208201905081810360008301526135ef816135b3565b9050919050565b7f4552433732313a207472616e7366657220746f206e6f6e20455243373231526560008201527f63656976657220696d706c656d656e7465720000000000000000000000000000602082015250565b600061365260328361270b565b915061365d826135f6565b604082019050919050565b6000602082019050818103600083015261368181613645565b9050919050565b7f45524337323155524953746f726167653a2055524920736574206f66206e6f6e60008201527f6578697374656e7420746f6b656e000000000000000000000000000000000000602082015250565b60006136e4602e8361270b565b91506136ef82613688565b604082019050919050565b60006020820190508181036000830152613713816136d7565b9050919050565b600081905092915050565b600061373082612700565b61373a818561371a565b935061374a81856020860161271c565b80840191505092915050565b60006137628285613725565b915061376e8284613725565b91508190509392505050565b600081519050919050565b600082825260208201905092915050565b60006137a18261377a565b6137ab8185613785565b93506137bb81856020860161271c565b6137c48161274f565b840191505092915050565b60006080820190506137e46000830187612850565b6137f16020830186612850565b6137fe60408301856128e6565b81810360608301526138108184613796565b905095945050505050565b60008151905061382a81612671565b92915050565b6000602082840312156138465761384561263b565b5b60006138548482850161381b565b91505092915050565b7f455243373231456e756d657261626c653a20636f6e736563757469766520747260008201527f616e7366657273206e6f7420737570706f727465640000000000000000000000602082015250565b60006138b960358361270b565b91506138c48261385d565b604082019050919050565b600060208201905081810360008301526138e8816138ac565b9050919050565b7f4552433732313a206d696e7420746f20746865207a65726f2061646472657373600082015250565b600061392560208361270b565b9150613930826138ef565b602082019050919050565b6000602082019050818103600083015261395481613918565b9050919050565b7f4552433732313a20746f6b656e20616c7265616479206d696e74656400000000600082015250565b6000613991601c8361270b565b915061399c8261395b565b602082019050919050565b600060208201905081810360008301526139c081613984565b9050919050565b7f4e487b7100000000000000000000000000000000000000000000000000000000600052601260045260246000fd5b6000613a01826127bb565b9150613a0c836127bb565b925082821015613a1f57613a1e6132e3565b5b828203905092915050565b7f4e487b7100000000000000000000000000000000000000000000000000000000600052603160045260246000fdfea2646970667358221220fb29fb30b7f62f3d47a3daf9bed9abbcc39f590ca78b064a679725feadde759964736f6c63430008090033",
  "linkReferences": {},
  "deployedLinkReferences": {}
}